S32D00000000338D000093000110C3000016383C000090072003130000189307200113000003930720001500004D4F
S32D0000000AC100011291000111C200011292100000C20002139210000EC2000067921000101200000292100012B0
S32D00000014951000114000003C3D5D00001DDBFFB0A0D000028D00011050D000008D0000551DD000019D00005559
S32D0000001E900720038D00010F1DD300019D00010FA0D00001200E00008D00011191D0000192D0000293D0000355
S32D0000002894D0000495D0000596D0000697D0000798D0000899D000099AD0000A9BD0000B9CD0000C9FD0000F3C
S32D000000329ED0000E31BD000091D0000D319D000091D00010314D000091D000118D0001118DD000009D000111EE
S32D0000003C8D0001110DD0000081D0000D3B1C000081D00010391C000081D00011341C000081D000129100010FF9
S32D0000004681D0000182D0000283D0000384D0000485D0000586D0000687D0000788D0000889D000098AD0000AFE
S32D000000508BD0000B8CD0000C8FD0000F8ED0000E200E0000000000001EE300029CE000009DE000013D0E00075D
S32D0000005A1DDD10038DD000001DDB00022DD80000B0DFFFFA3D0E00071DDD10008CE000029CD000008CE00000E5
S32D000000648DE000011EE1000250F000001EE3000993E0000194E0000295E0000396E0000497E000059CE00006DB
S32D0000006E9DE000079FE000081401000103010000060100000701000005010000400001043D0E00071DDD100386
S32D0000007883D000001D3B00012DD80000B0D0000C3D0E00071DDD100186D000003D6A0071B0D00001400001058B
S32D00000082166200303D600001B0D000033D620003B0D0000104010006870000553D4A0001B0D000281D01000D22
S32D0000008C9DE0000060000056157617701D01000A0C56000D0DC8000D1DD000309DE00000600000561D58000AB9
S32D000000961DD000309DE00000600000561D01003A9DE00000600000561D0117700DD400050D72000D1DD603E86C
S32D000000A01DD8000A1DD000309DE00000600000561D0117700DD400050D72000D1DD600641DD8000A1DD0003059
S32D000000AA9DE00000600000561D0100209DE00000600000561D0100209DE0000060000056400001043D4A000245
S32D000000B4B0D000271D01000D9DE00000600000563D0E00011DDD86A00D76000D1DD8000A1DD000309DE0000084
S32D000000BE600000561D7627101DD8000A1DD000309DE00000600000561D7603E81DD8000A1DD000309DE000002E
S32D000000C8600000561D7600641DD8000A1DD000309DE00000600000561D01002E9DE00000600000561D01000A67
S32D000000D20C76000D0DC8000D1DD000309DE00000600000561D78000A1DD000309DE0000060000056400001040B
S32D000000DC3D4A0003B0D000261D01000D9DE00000600000563D0E00011DDD86A00D76000D1DD8000A1DD0003050
S32D000000E69DE00000600000561D7627101DD8000A1DD000309DE00000600000561D7603E81DD8000A1DD0003006
S32D000000F09DE00000600000561D7600641DD8000A1DD000309DE00000600000561D01000A0C76000D0DC8000DD0
S32D000000FA1DD000309DE00000600000561D78000A1DD000309DE00000600000561D0100209DE000006000005628
S32D000001044000007683E0000184E0000285E0000386E0000487E000058CE000068DE000078FE000081EE10009AA
S3110000010E50F0000000000000000000009F
S70500000000FA
